:020000040000FA
:0400000007EF00F016
:100008005E823CED13F0A6EF11F0106E4D04D8A4FB
:1000180010EF00F012EF00F039EF00F0CE0E036E93
:100028002F0E046E800E056EA6EC12F0DB0E036E2A
:100038002F0E046EC00E056EA6EC12F0000E496E6F
:100048004850D8A42AEF00F02CEF00F04BEF03F053
:10005800000E016E010EFAEC13F0000E496E000E50
:100068004D6E020E556E4BEF03F0020E4D18D8A4DC
:1000780040EF00F042EF00F067EF00F08B0E036EE8
:100088002E0E046E800E056EA6EC12F07A0E036E2C
:100098002E0E046EC00E056EA6EC12F0000E496E10
:1000A8004850D8A45AEF00F05CEF00F04BEF03F093
:1000B800000E016E010EFAEC13F0020E556E000EE2
:1000C8004D6E4BEF03F0E80E036E2F0E046E830E99
:1000D800056EA6EC12F04950D8A475EF00F077EF42
:1000E80000F090EF00F00001A3510A0DF350A42591
:1000F800F00F476EA6510A0DF350A725F00F466E74
:10010800A9510A0DF350AA25F00F456E010E496E4C
:100118000B0E566EDAEC0EF04450D8A496EF00F0B1
:1001280098EF00F011EF01F0C40E096E47C001F01E
:10013800026A000E046E0A0E036EFAEC10F001500B
:10014800300FB5EC14F0C30E096E47C001F0026A17
:10015800000E046E0A0E036E98EC10F00150300F7A
:10016800B5EC14F0C50E096E3A0EB5EC14F0C70ED6
:10017800096E46C001F0026A000E046E0A0E036E94
:10018800FAEC10F00150300FB5EC14F0C60E096E01
:1001980046C001F0026A000E046E0A0E036E98EC67
:1001A80010F00150300FB5EC14F0C80E096E3A0E7D
:1001B800B5EC14F039503A10D8B4E5EF00F0E7EF99
:1001C80000F007EF01F0CA0E096E45C001F0026A9F
:1001D800000E046E0A0E036EFAEC10F00150300F98
:1001E800B5EC14F0C90E096E45C001F0026A000EA4
:1001F800046E0A0E036E98EC10F00150300FB5EC47
:1002080014F012EF02F0650E036E2F0E046EC90E85
:10021800056EA6EC12F012EF02F04404D8A417EF12
:1002280001F019EF01F092EF01F0C40E096E47C01A
:1002380001F0026A000E046E0A0E036EFAEC10F06A
:100248000150300FB5EC14F0C30E096E47C001F031
:10025800026A000E046E0A0E036E98EC10F001504C
:10026800300FB5EC14F0C50E096E3A0EB5EC14F06B
:10027800CA0E096E45C001F0026A000E046E0A0E2D
:10028800036EFAEC10F00150300FB5EC14F0C90E03
:10029800096E45C001F0026A000E046E0A0E036E74
:1002A80098EC10F00150300FB5EC14F0C80E096E40
:1002B8003A0EB5EC14F039503A10D8B466EF01F0A4
:1002C80068EF01F088EF01F0C70E096E46C001F033
:1002D800026A000E046E0A0E036EFAEC10F001506A
:1002E800300FB5EC14F0C60E096E46C001F0026A74
:1002F800000E046E0A0E036E98EC10F00150300FD9
:10030800B5EC14F012EF02F0650E036E2F0E046EBA
:10031800C60E056EA6EC12F012EF02F0020E44189B
:10032800D8A499EF01F09BEF01F012EF02F0CA0E8A
:10033800096E45C001F0026A000E046E0A0E036ED3
:10034800FAEC10F00150300FB5EC14F0C90E096E3C
:1003580045C001F0026A000E046E0A0E036E98ECA6
:1003680010F00150300FB5EC14F0C50E096E3A0EBE
:10037800B5EC14F0C70E096E46C001F0026A000E13
:10038800046E0A0E036EFAEC10F00150300FB5EC53
:1003980014F0C60E096E46C001F0026A000E046E23
:1003A8000A0E036E98EC10F00150300FB5EC14F003
:1003B800C80E096E3A0EB5EC14F039503A10D8B49C
:1003C800E8EF01F0EAEF01F00AEF02F0C40E096E5F
:1003D80047C001F0026A000E046E0A0E036EFAECC2
:1003E80010F00150300FB5EC14F0C30E096E47C081
:1003F80001F0026A000E046E0A0E036E98EC10F00B
:100408000150300FB5EC14F012EF02F0650E036ED8
:100418002F0E046EC30E056EA6EC12F00B0E10180C
:10042800D8A419EF02F01BEF02F0A1EF02F00001CF
:100438008F4B902B905109E1C90E8F5DD8A027EF03
:1004480002F029EF02F0C9EF02F0000E906F000EE3
:100458008F6F47C001F0026A000E046E0A0E036E29
:10046800FAEC10F001C00BF002C00CF00F0E0B16E6
:1004780047C001F0026A000E046E0A0E036E98EC83
:1004880010F00F0E01160138F00B0B100D6E46C060
:1004980001F0026A000E046E0A0E036EFAEC10F008
:1004A80001C00BF002C00CF00F0E0B1646C001F095
:1004B800026A000E046E0A0E036E98EC10F00F0E1E
:1004C80001160138F00B0B100E6E45C001F0026AE0
:1004D800000E046E0A0E036EFAEC10F001C00BF069
:1004E80002C00CF00F0E0B1645C001F0026A000E98
:1004F800046E0A0E036E98EC10F00F0E0116013808
:10050800F00B0B100F6E0DC002F0020E9AEC14F0F7
:100518000EC002F0010E9AEC14F00FC002F0000EAB
:100528009AEC14F0030E486E010E4D6E000E016E2B
:10053800010EFAEC13F0C9EF02F00001905107E147
:10054800C80E8F5DD8B0ABEF02F0ADEF02F0C9EF87
:1005580002F08F519011D8B4B4EF02F0B6EF02F068
:10056800C9EF02F0010E4424016E026A000E022255
:10057800000E046E030E036EFAEC10F00150446E88
:10058800000E0001906F000E8F6F0C0E1018D8A48B
:10059800D0EF02F0D2EF02F0EAEF02F000018D4B4B
:1005A8008E2B8E5109E1C90E8D5DD8A0DEEF02F0C9
:1005B800E0EF02F04BEF03F0000E8E6F000E8D6F30
:1005C800030E486E020E4D6E4BEF03F000018E5184
:1005D80007E1C80E8D5DD8B0F4EF02F0F6EF02F037
:1005E8004BEF03F08D518E11D8B4FDEF02F0FFEF01
:1005F80002F04BEF03F04450D8A405EF03F007EFE7
:1006080003F017EF03F0010E4524016E026A000E95
:100618000222000E046E3C0E036EFAEC10F001503C
:10062800456E46EF03F04404D8A41DEF03F01FEF16
:1006380003F02FEF03F0010E4624016E026A000E4C
:100648000222000E046E3C0E036EFAEC10F001500C
:10065800466E46EF03F0020E4418D8A436EF03F0B6
:1006680038EF03F046EF03F0010E4724016E026AEB
:10067800000E0222000E046E180E036EFAEC10F043
:100688000150476E000E00018E6F000E8D6F000145
:10069800914B922B970E91199211D8A456EF03F013
:1006A80058EF03F05FEF03F0000E926F000E916FAA
:1006B800391E3A1E48061200690E036E2E0E046E8D
:1006C800800E056EA6EC12F05B50D8B46EEF03F006
:1006D80070EF03F0BDEF03F0000E5B6E000E00013B
:1006E8008C6F000E8B6FAEEF03F0000E366E000EAF
:1006F800356E8BC001F08CC002F0000E046E0B0E3C
:10070800036E57EC14F08C0E01240B6E010E0220C0
:100718000C6E35500B24D96E36500C20DA6E000161
:100728008B510A0DF350352442EC14F0DF6E354A34
:10073800362A36BEA9EF03F0365009E10A0E355CB9
:10074800D8A0A9EF03F0ABEF03F07DEF03F00001B1
:100758008B4B8C2B41508B5D8C51800A0B6E425019
:10076800800A0B58D8A0BBEF03F0BDEF03F079EF78
:1007780003F0C00E096E3350300FB5EC14F0C10E03
:10078800096E200EB5EC14F0C20E096E33C001F0EC
:1007980034C002F0000E046E0B0E036E57EC14F01A
:1007A8008C0E0124D96E010E0220DA6EDF50B5ECF2
:1007B80014F0C30E096E33C001F034C002F0000E0D
:1007C800046E0B0E036E57EC14F08D0E0124D96ED7
:1007D800010E0220DA6EDF50B5EC14F0C40E096E7B
:1007E8003A0EB5EC14F0C50E096E33C001F034C0F2
:1007F80002F0000E046E0B0E036E57EC14F08E0E12
:100808000124D96E010E0220DA6EDF50B5EC14F027
:10081800C60E096E33C001F034C002F0000E046E3B
:100828000B0E036E57EC14F08F0E0124D96E010ED7
:100838000220DA6EDF50B5EC14F0C70E096E3A0EDE
:10084800B5EC14F0C80E096E33C001F034C002F0E4
:10085800000E046E0B0E036E57EC14F0900E01247C
:10086800D96E010E0220DA6EDF50B5EC14F0C90E15
:10087800096E33C001F034C002F0000E046E0B0E96
:10088800036E57EC14F0910E0124D96E010E02206C
:10089800DA6EDF50B5EC14F0CA0E096E200EB5EC16
:1008A80014F0CB0E096E33C001F034C002F0000E14
:1008B800046E0B0E036E57EC14F0920E0124D96EE1
:1008C800010E0220DA6EDF50B5EC14F0CC0E096E82
:1008D80033C001F034C002F0000E046E0B0E036E3C
:1008E80057EC14F0930E0124D96E010E0220DA6E33
:1008F800DF50B5EC14F0CD0E096E200EB5EC14F0F7
:10090800CE0E096E33C001F034C002F0000E046E42
:100918000B0E036E57EC14F0940E0124D96E010EE1
:100928000220DA6EDF50B5EC14F0CF0E096E33C03A
:1009380001F034C002F0000E046E0B0E036E57EC8B
:1009480014F0950E0124D96E010E0220DA6EDF50E4
:10095800B5EC14F0000E30EC12F00E6E0C0E0E1802
:10096800D8A4B9EF04F0BBEF04F0E3EF04F0000102
:10097800894B8A2B8ABFCAEF04F08A5109E1C90E54
:10098800895DD8A0CAEF04F0CCEF04F016EF05F0AB
:10099800000E8A6F000E896F000E506E000E4F6EAB
:1009A800020E556E010E5B6E000E346E000E336E35
:1009B800000E016E010EFAEC13F016EF05F00001BF
:1009C8008ABFF2EF04F08A5107E1C80E895DD8B0FA
:1009D800F0EF04F0F2EF04F016EF05F089518A11F8
:1009E800D8B4F9EF04F0FBEF04F016EF05F0000EB1
:1009F8008A6F000E896FFF0E41240B6EFF0E422096
:100A08000C6E0B50335C3450800A0D6E0C50800A0B
:100A18000D58D8B012EF05F014EF05F016EF05F0F9
:100A2800334A342A0B0E0E18D8A41DEF05F01FEF19
:100A380005F026EF05F0000E0001886F020E876FA3
:100A480052EF05F0000188BF35EF05F0885107E146
:100A5800C80E875DD8B033EF05F035EF05F052EFDB
:100A680005F087518811D8B43CEF05F03EEF05F04A
:100A780052EF05F0000E886F000E876F34BE4DEF01
:100A880005F0345008E13304D8A04DEF05F04FEFDE
:100A980005F052EF05F03306D8A0340612000F6EA9
:100AA80000019B059C11D8A45CEF05F05EEF05F0F2
:100AB80081EF05F03F4A402A210E3F1807E1030E57
:100AC8004018D8A46AEF05F06CEF05F0EFEF06F0D8
:100AD8000C0E566EDAEC0EF0020E556E000E3E6EDF
:100AE800000E3D6E000E00019E6F000E9D6F000E01
:100AF8009C6F000E9B6FEFEF06F09D519E11D8A4DE
:100B080088EF05F08AEF05F000EF06F03E5007E1A8
:100B1800040E3D5CD8B093EF05F095EF05F0DFEFDC
:100B280005F0000E9C6F000E9B6FBD0E036E2F0E1E
:100B3800046E800E056EA6EC12F00B0E0F18D8A4EA
:100B4800A8EF05F0AAEF05F0BFEF05F0D8903D3407
:100B5800D96E3E34DA6E740ED926000EDA22300EC3
:100B6800DE6E000EDD6E3D50C00F096E2A0EB5EC2C
:100B780014F03D4A3E2A0C0E0F18D8A4C6EF05F013
:100B8800C8EF05F0EFEF06F0D8903D34D96E3E344B
:100B9800DA6E740ED926000EDA22310EDE6E000EE1
:100BA800DD6E3D50C00F096E2A0EB5EC14F03D4ABB
:100BB8003E2AEFEF06F0040E3D183E10D8A4E7EFEA
:100BC80005F0E9EF05F0EFEF06F0000E9E6F010E5D
:100BD8009D6F000E016E010EFAEC13F08A0E036E83
:100BE8002F0E046E800E056EA6EC12F0000E3E6EFF
:100BF800000E3D6EEFEF06F09D059E11D8A407EF9D
:100C080006F009EF06F0EFEF06F03E5007E1040E9C
:100C18003D5CD8B012EF06F014EF06F050EF06F086
:100C28000B0E0F18D8A41BEF06F01DEF06F032EFDD
:100C380006F0D8903D34D96E3E34DA6E6A0ED92665
:100C4800000EDA22300EDE6E000EDD6E3D50C00F53
:100C5800096E2A0EB5EC14F03D4A3E2A0C0E0F1808
:100C6800D8A439EF06F03BEF06F050EF06F0D89025
:100C78003D34D96E3E34DA6E6A0ED926000EDA2279
:100C8800310EDE6E000EDD6E3D50C00F096E2A0E6D
:100C9800B5EC14F03D4A3E2A040E3D183E10D8A487
:100CA80058EF06F05AEF06F0EFEF06F000019F51FB
:100CB800A011D8A462EF06F064EF06F0EFEF06F09B
:100CC800000E406E000E3F6E405009E1040E3F5C7E
:100CD800D8A071EF06F073EF06F075EF06F09EEFFF
:100CE80006F0D8903F34D96E4034DA6E740ED926A7
:100CF800000EDA22D8903F34E16E4034E26E6A0E7C
:100D0800E126000EE222DE50E61809E1DE50E61880
:100D1800D8B491EF06F093EF06F09AEF06F0000EC4
:100D28000001A06F010E9F6F9EEF06F03F4A402A18
:100D380068EF06F000019F05A011D8A4A6EF06F001
:100D4800A8EF06F0C4EF06F0000E016E010EFAECF3
:100D580013F0AC0E036E2F0E046EC00E056EA6ECDB
:100D680012F0000E00019E6F000E9D6F000EA06F26
:100D7800000E9F6F000E9C6F010E9B6FEFEF06F049
:100D88009B0E036E2F0E046E800E056EA6EC12F0FD
:100D9800790E036E2F0E046EC00E056EA6EC12F0CF
:100DA8006AC004F0C80EDAEC13F06CC004F0C90E87
:100DB800DAEC13F06EC004F0CA0EDAEC13F070C06F
:100DC80004F0CB0EDAEC13F0000E00019C6F010E5C
:100DD8009B6FFAEF05F03E5007E1040E3D5CD8B07A
:100DE800F8EF06F0FAEF06F040EF07F000019B512C
:100DF8009C11D8A402EF07F004EF07F040EF07F0CA
:100E080099510B6E9A510C6E994B9A2B0C5009E123
:100E1800C90E0B5CD8A013EF07F015EF07F040EFF1
:100E280007F0000E9A6F000E996F5150D8B41FEF5B
:100E380007F022EF07F0010E23EF07F0000E516EC6
:100E48005150D8B42AEF07F02CEF07F037EF07F02E
:100E5800680E036E2F0E046E3D50C00F056EA6EC93
:100E680012F040EF07F0570E036E2F0E046E3D5040
:100E7800C00F056EA6EC12F012001250800B1F6E08
:100E880012501224266E11AE4CEF07F04EEF07F009
:100E98004FEF07F026802650D8B455EF07F057EFEC
:100EA80007F06CEF07F02628D8A45DEF07F05FEF96
:100EB80007F067EF07F0000E0F6E000E106E000EC1
:100EC800116E000E126E118E000E126E74EF07F086
:100ED800000E0F6E000E106E000E116E000E126ED8
:100EE8001650800B1F1A16501624276E15AE7FEF6A
:100EF80007F081EF07F082EF07F027802750D8B47A
:100F080088EF07F08AEF07F09FEF07F02728D8A4AB
:100F180090EF07F092EF07F09AEF07F0000E136ECC
:100F2800000E146E000E156E000E166E158E000E55
:100F3800166EA7EF07F0000E136E000E146E000E6B
:100F4800156E000E166E1350141015101610D8A436
:100F5800B0EF07F0B2EF07F0CAEF07F0000E0F6E20
:100F6800000E106E000E116E000E126E800E111221
:100F78007F0E12121F5012120FC00FF010C010F087
:100F880011C011F012C012F00DEF09F02650D8A4CC
:100F9800D0EF07F0D2EF07F0DCEF07F0000E0F6E8E
:100FA800000E106E000E116E000E126E0DEF09F09D
:100FB800275026C017F0186A175E000E185A7F0EC1
:100FC8001724206E000E1820216E0FC01BF010C0D1
:100FD8001CF011C01DF012C01EF0000E0F6E000EA6
:100FE800106E000E116E000E126E000E226E000EB4
:100FF800236E000E246E000E256E000E276E3DEF48
:1010080008F02750D8B40BEF08F00DEF08F024EFE4
:1010180008F0D8901B361C361D361E36D8900F3671
:1010280010361136123625AE1CEF08F01EEF08F008
:101038001FEF08F00F80D890223623362436253645
:1010480013501B5C14501C5815501D5816501E5830
:10105800D8A031EF08F033EF08F03CEF08F0258C0A
:1010680013501B5E14501C5A15501D5A16501E5A08
:10107800272A190E276443EF08F045EF08F005EF1B
:1010880008F01B501C101D101E10D8B44EEF08F0AD
:1010980050EF08F068EF08F0228068EF08F0D89069
:1010A8000F3610361136123625AE5DEF08F05FEFB9
:1010B80008F060EF08F00F80D890223623362436E7
:1010C80025362006D8A0210611AE6DEF08F06FEF87
:1010D80008F053EF08F0000E276E25AE76EF08F003
:1010E80078EF08F09CEF08F0FF0E2214176EFF0E41
:1010F8002314186EFF0E2414196E7F0E25141A6E11
:101108001750181019101A10D8B48DEF08F08FEF77
:1011180008F093EF08F0010E276E9CEF08F00FA07F
:1011280098EF08F09AEF08F09CEF08F08FEF08F0BE
:101138002750D8B4A2EF08F0A4EF08F0C8EF08F0E1
:10114800010E0F26000E10221122122212A0AFEF5C
:1011580008F0B1EF08F0C8EF08F00FC017F010C0A2
:1011680018F011C019F012C01AF01A341A321932D4
:101178001832173217C00FF018C010F019C011F04C
:101188001AC012F0204A212A21BED3EF08F02150BC
:1011980008E12028D8A0D3EF08F0D5EF08F0E0EF59
:1011A80008F0000E216E2068000E0F6E000E106E03
:1011B800000E116E000E126E21BEEDEF08F02150E8
:1011C80006E12004D8B0EBEF08F0EDEF08F0FBEFF4
:1011D80008F0000E216E000E206E000E0F6E000E3D
:1011E800106E000E116E000E126E000E1F6E20C0E3
:1011F80026F026A002EF09F004EF09F007EF09F046
:10120800118E08EF09F0119ED8902630126EBEEFAD
:1012180007F012000D6E040E4C6015EF09F017EF81
:1012280009F0A2EF09F05C50D8B41DEF09F01FEFE8
:1012380009F0A2EF09F04A50D8A425EF09F027EFEA
:1012480009F0A2EF09F0AD0E036E2E0E046E800EAB
:10125800056EA6EC12F0000E4B6E0B0E0D18D8A4FE
:1012680038EF09F03AEF09F049EF09F07E0E4C2407
:10127800D96EDA6A000EDA22300EDF6E4C50C00FDB
:10128800096E2A0EB5EC14F04C2A0C0E0D18D8A4D1
:1012980050EF09F052EF09F061EF09F07E0E4C248F
:1012A800D96EDA6A000EDA22310EDF6E4C50C00FAA
:1012B800096E2A0EB5EC14F04C2A000199510B6EF8
:1012C8009A510C6E994B9A2B0C5009E1C90E0B5C84
:1012D800D8A071EF09F073EF09F0BFEF0AF0000E24
:1012E8009A6F000E996F5150D8B47DEF09F080EFD6
:1012F80009F0010E81EF09F0000E516E5150D8B47B
:1013080088EF09F08AEF09F095EF09F0680E036E8F
:101318002F0E046E4C50C00F056EA6EC12F0BFEFF6
:101328000AF0570E036E2F0E046E4C50C00F056E58
:10133800A6EC12F0BFEF0AF0BFEF0AF0040E4C184B
:10134800D8A4A9EF09F0ABEF09F084EF0AF0C80EB2
:1013580042EC14F00001AC6FC90E42EC14F000012D
:10136800AD6FCA0E42EC14F00001AE6FCB0E42EC2A
:1013780014F00001AF6F4B50D8A4C5EF09F0C7EFC8
:1013880009F0F6EF09F0000E406E000E3F6E405077
:1013980009E1040E3F5CD8A0D4EF09F0D6EF09F0BC
:1013A800D8EF09F0F6EF09F07E0E3F24D96E000E53
:1013B8004020DA6EAC0E3F24E16E000E4020E26E53
:1013C800DE50E618D8B4EBEF09F0EDEF09F0F2EFD4
:1013D80009F0010E4B6E5C06F6EF09F03F4A402A11
:1013E800CBEF09F04B50D8A4FCEF09F0FEEF09F061
:1013F8000EEF0AF0F10E036E2E0E046EC00E056E8F
:10140800A6EC12F0030E5C6E000E4C6E020E556ECA
:10141800BFEF0AF0030E5C6014EF0AF016EF0AF053
:10142800BFEF0AF0020E5C18D8A41DEF0AF01FEFF8
:101438000AF031EF0AF09C0E036E2E0E046E800E39
:10144800056EA6EC12F0E00E036E2E0E046EC00EB2
:10145800056EA6EC12F049EF0AF05C04D8A437EF49
:101468000AF039EF0AF049EF0AF09C0E036E2E0ECF
:10147800046E800E056EA6EC12F0BE0E036E2E0EE4
:10148800046EC00E056EA6EC12F05C50D8A44FEFA7
:101498000AF051EF0AF06AEF0AF0D58ECF0E036E0C
:1014A8002E0E046E800E056EA6EC12F0F10E036E81
:1014B8002F0E046EC00E056EA6EC12F0010E4A6ED9
:1014C8003C0E5D6E000E4C6EBFEF0AF03F4A402A9C
:1014D800F50E3F1806E14004D8A475EF0AF077EF3F
:1014E8000AF0A0EF09F0000E406E000E3F6E000EED
:1014F8004C6E000E016E010EFAEC13F0BFEF0AF00D
:101508004A04D8A48AEF0AF08CEF0AF0BFEF0AF079
:101518005D50D8A492EF0AF094EF0AF099EF0AF020
:10152800D59E000E4A6E030E5C6EC80E096E5DC035
:1015380001F0026A000E046E0A0E036E98EC10F0B9
:101548000150300FB5EC14F0C90E096E5DC001F002
:10155800026A000E046E0A0E036EFAEC10F00150D7
:10156800300FB5EC14F0FA0E036E2F0E046ECA0E8F
:10157800056EA6EC12F01200000195519611D8A440
:10158800C8EF0AF0CAEF0AF0DCEF0BF0090E566E4E
:10159800DAEC0EF0130E036E2F0E046E800E056E3D
:1015A800A6EC12F0020E036E2F0E046EC00E056E2E
:1015B800A6EC12F0530E026E2E0E036E0DEC13F015
:1015C800000E4E6ECAEF0BF04E500E0D000EF324B7
:1015D800D96E010EF420DA6E4E50300FDF6E4E5089
:1015E8000E0D010EF324D96E010EF420DA6E200ED2
:1015F800DF6E4E500E0D020EF324D96E010EF4204C
:10160800DA6E4E500A0DF35042EC14F0DF6E4E5075
:101618000E0D030EF324D96E010EF420DA6E4E502F
:101628000A0DF32842EC14F0DF6E4E500E0D040E36
:10163800F324D96E010EF420DA6E3A0EDF6E4E50A6
:101648000E0D050EF324D96E010EF420DA6E4E50FD
:101658000A0DF350020F42EC14F0DF6E4E500E0DDF
:10166800060EF324D96E010EF420DA6E4E500A0DE0
:10167800F350030F42EC14F0DF6E4E500E0D070EC0
:10168800F324D96E010EF420DA6E3A0EDF6E4E5056
:101698000E0D080EF324D96E010EF420DA6E4E50AA
:1016A8000A0DF350040F42EC14F0DF6E4E500E0D8D
:1016B800090EF324D96E010EF420DA6E4E500A0D8D
:1016C800F350050F42EC14F0DF6E4E500E0D0A0E6B
:1016D800F324D96E010EF420DA6E200EDF6E4E5020
:1016E8000E0D0B0EF324D96E010EF420DA6E4E5057
:1016F8000A0DF350060F42EC14F0DF6E4E500E0D3B
:101708000C0EF324D96E010EF420DA6E4E500A0D39
:10171800F350070F42EC14F0DF6E4E500E0D0D0E15
:10172800F324D96E010EF420DA6E200EDF6E4E50CF
:101738000E0D0E0EF324D96E010EF420DA6E4E5003
:101748000A0DF350080F42EC14F0DF6E4E500E0DE8
:101758000F0EF324D96E010EF420DA6E4E500A0DE6
:10176800F350090F42EC14F0DF6E4E500E0D000ED0
:10177800F324026E010EF420036E0DEC13F0660ED6
:10178800026E2E0E036E0DEC13F04E2A4E50096EAB
:101798000A6A4150095C0A50800A0B6E4250800A5E
:1017A8000B58D8A0DAEF0BF0DCEF0BF0E8EF0AF0FB
:1017B8000001954B962BC30E951906E19605D8A402
:1017C800E8EF0BF0EAEF0BF0F5EF0BF0000E966F79
:1017D800000E956F020E556E000E016E010EFAECAA
:1017E80013F012006AEC14F0FA0E42EC14F0326EA8
:1017F8003250416E426ADCEC12F0DAEC0EF0040E64
:1018080094EC13F001C0A1F002C0A2F0AE0E136E6A
:10181800470E146E250E156E410E166EA1C001F00E
:10182800A2C002F0036A046A000E00EC0EF001C0C8
:101838000FF002C010F003C011F004C012F041EC28
:1018480007F00FC028F010C029F011C02AF012C00C
:101858002BF015EC10F02850596E59C001F0026AAF
:10186800000E046E0A0E036E98EC10F00150300F53
:10187800586E59C001F0026A000E046E0A0E036E1B
:10188800FAEC10F00150300F576EDCEC12F0010E3C
:1018980030EC12F0546E020E5418D8A456EF0CF027
:1018A80058EF0CF070EF0CF0070E56605EEF0CF07E
:1018B80060EF0CF061EF0CF0562A080E5618D8A409
:1018C80068EF0CF06AEF0CF06CEF0CF0020E566E3D
:1018D800DAEC0EF0A2EF0CF0030E5418D8A477EF50
:1018E8000CF079EF0CF096EF0CF0010E56647FEFD8
:1018F8000CF081EF0CF08BEF0CF0080E5618D8B4F2
:1019080088EF0CF08AEF0CF08BEF0CF05606080EFF
:101918005618D8A492EF0CF094EF0CF06CEF0CF082
:101928006AEF0CF05404D8A49CEF0CF09EEF0CF076
:10193800A2EF0CF0080E566E6CEF0CF05550D8A4C0
:10194800A8EF0CF0AAEF0CF0AEEF0CF06BEC12F075
:1019580003EF0CF05504D8A4B4EF0CF0B6EF0CF07C
:10196800BBEF0CF054500EEC09F003EF0CF0020E34
:101978005518D8A4C2EF0CF0C4EF0CF0CDEF0CF062
:10198800000E30EC12F0526E525021EC0DF003EFC5
:101998000CF0030E5518D8A4D4EF0CF0D6EF0CF0C9
:1019A80003EF0CF0000E30EC12F0526E5350D8A436
:1019B800E0EF0CF0E2EF0CF0E7EF0CF0525060ECC7
:1019C80003F003EF0CF05304D8A4EDEF0CF0EFEFA5
:1019D8000CF0F3EF0CF0C0EC0AF003EF0CF0020E81
:1019E8005318D8A4FAEF0CF0FCEF0CF001EF0DF04F
:1019F8005450EFEC11F003EF0CF0030E5318D8A479
:101A080008EF0DF00AEF0DF00FEF0DF0525009EC52
:101A180000F003EF0CF0040E5318D8A416EF0DF0E5
:101A280018EF0DF01DEF0DF0545053EC05F003EFD7
:101A38000CF003EF0CF007EF00F00B6E5050110D97
:101A4800000EF324036E020EF420046E810E056E60
:101A5800A6EC12F05050110D110EF324036E020E75
:101A6800F420046EC10E056EA6EC12F04F50D8A4F7
:101A780040EF0DF042EF0DF04EEF0DF0800E096EC5
:101A88002A0EB5EC14F0C00E096E200EB5EC14F059
:101A980058EF0DF0800E096E200EB5EC14F0C00E54
:101AA800096E2A0EB5EC14F00B0E0B18D8A45FEFD4
:101AB8000DF061EF0DF081EF0DF00001934B942BC9
:101AC800945109E1C90E935DD8A06DEF0DF06FEF49
:101AD8000DF0AFEF0DF0000E946F000E936F030E34
:101AE800556E000E016E010EFAEC13F0000E4D6EED
:101AF80050504F24536EAFEF0DF00001945107E1A1
:101B0800C80E935DD8B08BEF0DF08DEF0DF0AFEFF1
:101B18000DF093519411D8B494EF0DF096EF0DF0A9
:101B2800AFEF0DF0000E946F000E936F4F04D8A422
:101B3800A0EF0DF0A2EF0DF0A6EF0DF0000E4F6E26
:101B4800AFEF0DF05050D8B4ACEF0DF0AEEF0DF094
:101B5800AFEF0DF050060C0E0B18D8A4B6EF0DF031
:101B6800B8EF0DF0D2EF0DF03B4A3C2A3C5009E1AA
:101B7800C90E3B5CD8A0C3EF0DF0C5EF0DF0FFEF29
:101B88000DF0000E3C6E000E3B6E000E556E000E02
:101B9800016E010EFAEC13F0FFEF0DF03C5007E177
:101BA800C80E3B5CD8B0DBEF0DF0DDEF0DF0FFEFBA
:101BB8000DF03B503C10D8B4E4EF0DF0E6EF0DF01B
:101BC800FFEF0DF0000E3C6E000E3B6E4F50D8A498
:101BD800F0EF0DF0F2EF0DF0F6EF0DF0010E4F6E95
:101BE800FFEF0DF0030E5060FCEF0DF0FEEF0DF06F
:101BF800FFEF0DF0502A1200096E0950D8B407EF14
:101C08000EF009EF0EF02BEF0EF004BE10EF0EF001
:101C18000EEF0EF02BEF0EF001C005F002C006F03B
:101C280003C007F004C008F0051E061E071E081EA4
:101C3800052A000E06220722082205C00BF006C05E
:101C48000CF007C00DF008C00EF033EF0EF001C025
:101C58000BF002C00CF003C00DF004C00EF00150F0
:101C6800021003100410D8A43CEF0EF03EEF0EF063
:101C780048EF0EF0000E016E000E026E000E036EAD
:101C8800000E046ED9EF0EF0960E0A6E52EF0EF0AB
:101C98000A2AD8900E320D320C320B32000E0B1479
:101CA800056E000E0C14066E000E0D14076EFE0E67
:101CB8000E14086E0550061007100810D8A467EF18
:101CC8000EF069EF0EF04CEF0EF077EF0EF00A2AE7
:101CD800010E0B26000E0C220D220E22D8900E3279
:101CE8000D320C320B32000E0B14056E000E0C1464
:101CF800066E000E0D14076EFF0E0E14086E0550CA
:101D0800061007100810D8A48CEF0EF08EEF0EF016
:101D18006BEF0EF096EF0EF00A06D8900B360C36E5
:101D28000D360E360DBE9BEF0EF09DEF0EF0A5EFB3
:101D38000EF0020E0A60A3EF0EF0A5EF0EF090EF82
:101D48000EF00AB0AAEF0EF0ACEF0EF0ADEF0EF009
:101D58000D9ED8900A320AC005F0066A076A086A1A
:101D680005C008F0076A066A056A05500B12065096
:101D78000C1207500D1208500E120950D8B4C7EFB4
:101D88000EF0C9EF0EF0D1EF0EF004BED0EF0EF05A
:101D9800CEEF0EF0D1EF0EF00E8E0BC001F00CC09E
:101DA80002F00DC003F00EC004F01200A3C060F0F2
:101DB800A4C061F0A6C062F0A7C063F0A9C064F037
:101DC800AAC065F05650030DB10EF324D96E000E6B
:101DD800F420DA6EDF500001666F5650030DB20E24
:101DE800F324D96E000EF420DA6EDF50676F59C005
:101DF80001F0026A000E046E0A0E036E98EC10F0F1
:101E08000150300F0001686F59C001F0026A000EDE
:101E1800046E0A0E036EFAEC10F00150300F000148
:101E2800696F0A0E41184210D8A41DEF0FF01FEF7A
:101E38000FF059EF0FF0000E426E000E416E42BED9
:101E48002FEF0FF0425009E1090E415CD8A02FEFA7
:101E58000FF031EF0FF033EF0FF059EF0FF0000EE6
:101E6800386E000E376E41500A0DF35037240A0FB2
:101E780042EC14F0046E41500A0DF3503724DAECAA
:101E880013F0374A382A38BE53EF0FF0385009E1BB
:101E98000A0E375CD8A053EF0FF055EF0FF037EF6D
:101EA8000FF0414A422A23EF0FF0000E386E000E61
:101EB800376E600E3724D96E000E3820DA6EDF5088
:101EC800046E41500A0DF3503724DAEC13F041C088
:101ED80004F0FA0EDAEC13F0374A382A38BE7EEFEF
:101EE8000FF0385009E10A0E375CD8A07EEF0FF0EA
:101EF80080EF0FF05DEF0FF042BE8EEF0FF0425013
:101F080007E10A0E415CD8B08CEF0FF08EEF0FF0AE
:101F180090EF0FF0414A422A1200819A818C818EFB
:101F280081B299EF0FF09BEF0FF09EEF0FF0010ECB
:101F380014EF10F081B4A3EF0FF0A5EF0FF0A8EFA6
:101F48000FF0040E14EF10F081B6ADEF0FF0AFEF05
:101F58000FF0B2EF0FF0070E14EF10F081B8B7EFE3
:101F68000FF0B9EF0FF0BCEF0FF00A0E14EF10F0FE
:101F7800818A819C818E81B2C4EF0FF0C6EF0FF089
:101F8800C9EF0FF0020E14EF10F081B4CEEF0FF08E
:101F9800D0EF0FF0D3EF0FF0050E14EF10F081B66D
:101FA800D8EF0FF0DAEF0FF0DDEF0FF0080E14EFB7
:101FB80010F081B8E2EF0FF0E4EF0FF0E7EF0FF069
:101FC8000B0E14EF10F0818A818C819E819E81B264
:101FD800F0EF0FF0F2EF0FF0F5EF0FF0030E14EF44
:101FE80010F081B4FAEF0FF0FCEF0FF0FFEF0FF0F5
:101FF800060E14EF10F081B604EF10F006EF10F0A3
:1020080009EF10F0090E14EF10F081B80EEF10F080
:1020180010EF10F013EF10F00C0E14EF10F0FF0E8D
:1020280012002A342B34316E3150D8A41EEF10F030
:1020380020EF10F02AEF10F0000E286E000E296E27
:10204800000E2A6E000E2B6E97EF10F028C02CF0B1
:1020580029C02DF02AC02EF02BC02FF0200E3AEF09
:1020680010F0D8902F322E322D322C32E82E35EF48
:1020780010F02C50306E2A8EFF0E2816FF0E2916EF
:10208800FF0E2A16000E2B16960E315E31BE51EF4A
:1020980010F04FEF10F067EF10F03150800A970FF3
:1020A800D8B059EF10F05BEF10F05DEF10F020EFB3
:1020B80010F0D8902B322A3229322832313E5DEF87
:1020C80010F07FEF10F01F0E31646DEF10F06FEF1E
:1020D80010F077EF10F020EF10F0D890283629365E
:1020E8002A362B3631063150D8A47DEF10F07FEF19
:1020F80010F071EF10F03050D8B485EF10F087EF82
:1021080010F08FEF10F02B1E2A1E291E286C000ECF
:1021180029222A222B2228C028F029C029F02AC0E7
:102128002AF02BC02BF01200000E066E04BEA1EFA1
:1021380010F09FEF10F0A7EF10F0036C041ED8B05A
:10214800042A010E066E02BEAEEF10F0ACEF10F0DE
:10215800B4EF10F0016C021ED8B0022A010E061A64
:10216800000E086E000E076E03500410D8B4BFEFBF
:1021780010F0C1EF10F0E9EF10F0010E056EC9EF95
:1021880010F0D89003360436052A04AECEEF10F0CE
:10219800D0EF10F0C5EF10F0D8900736083603508E
:1021A800015C04500258D8A0DCEF10F0DEEF10F00C
:1021B800E3EF10F00350015E0450025A0780D890F4
:1021C80004320332052ED0EF10F00650D8B4EFEFEA
:1021D80010F0F1EF10F0F5EF10F0076C081ED8B012
:1021E800082A07C001F008C002F01200000E066EAF
:1021F80002BE03EF11F001EF11F009EF11F0016CCD
:10220800021ED8B0022A010E066E04BE10EF11F0AD
:102218000EEF11F014EF11F0036C041ED8B0042A6D
:1022280003500410D8B41BEF11F01DEF11F041EF6B
:1022380011F0010E056E25EF11F0D8900336043623
:10224800052A04AE2AEF11F02CEF11F021EF11F05E
:102258000350015C04500258D8A035EF11F037EF55
:1022680011F03BEF11F00350015E0450025AD89070
:1022780004320332052E2CEF11F00650D8B447EF84
:1022880011F049EF11F04DEF11F0016C021ED8B0BA
:10229800022A01C001F002C002F01200000E956E81
:1022A8009450F80B946E8290C30E036ECD0EE82EF8
:1022B800FED7032EFCD700F0000E016E330EFAECA9
:1022C80013F01B0E036E9E0EE82EFED7032EFCD7CE
:1022D80000D0000E016E330EFAEC13F0A60EE82EB5
:1022E800FED700D0000E016E330EFAEC13F000D0CA
:1022F80000D000F0000E016E020EFAEC13F0A60EEC
:10230800E82EFED700D0000E016E380EFAEC13F05E
:10231800A60EE82EFED700D0000E016E010EFAECD4
:1023280013F0040E036E3E0EE82EFED7032EFCD7E4
:10233800000E016E0C0EFAEC13F0A60EE82EFED776
:1023480000D01200D20EF66E260EF76E000EF86E52
:1023580002EE00F010EE55F00900F5CFEEFFE55063
:10236800E150FAE12E0EF66E280EF76E000EF86EAA
:1023780000EEACF010EE2CF00900F5CFEEFFE550C2
:10238800E150FAE10E0EF66E2A0EF76E000EF86EA8
:1023980000EE5AF010EE04F00900F5CFEEFFE5501C
:1023A800E150FAE101EE00F0FA0EEE6AE806FDE10E
:1023B80000EE60F04C0EEE6AE806FDE100EE33F048
:1023C800270EEE6AE806FDE15E905E92000EF86E5A
:1023D8000001F6EF0BF0000197519811D8A4F7EF20
:1023E80011F0F9EF11F016EF12F0000E426E000E28
:1023F800416E41C004F0FA0EDAEC13F00A0E566E84
:10240800DAEC0EF0350E036E2F0E046E800E056E9C
:10241800A6EC12F0460E036E2F0E046EC00E056E6B
:10242800A6EC12F00001974B982BC30E971906E102
:102438009805D8A422EF12F024EF12F02FEF12F033
:10244800000E986F000E976F020E556E000E016E0B
:10245800010EFAEC13F01200016E0104D8A437EF54
:1024680012F039EF12F05DEF12F091EC0FF0436EBD
:102478004328D8B442EF12F044EF12F051EF12F0B3
:102488005A50D8B44AEF12F04CEF12F051EF12F054
:10249800000E5A6E43506AEF12F04328D8A457EF43
:1024A80012F059EF12F069EF12F0010E5A6E69EF4F
:1024B80012F00150D8A463EF12F065EF12F069EF43
:1024C80012F091EC0FF06AEF12F0FF0E1200240EDA
:1024D800036E2F0E046E800E056EA6EC12F0A30E8E
:1024E800036E000E046EC00E056EA6EC12F0565078
:1024F800030DB10EF324036E000EF420046ECA0E11
:10250800056EA6EC12F0CE0E096E5850B5EC14F01C
:10251800CF0E096E5750B5EC14F00B0E5418D8A412
:1025280098EF12F09AEF12F0A5EF12F0000E016E7C
:10253800010EFAEC13F0000E506E000E4F6E010EF5
:10254800556E1200000E016E0550FAEC13F0C3EF41
:1025580012F0010E016E03C0F6FF04C0F7FFF86A1F
:10256800050EF76403D00800F55005D0F6CFE1FF5B
:10257800F7CFE2FFE750FAEC13F0034A042A03C04E
:10258800F6FF04C0F7FFF86A050EF76403D00800E9
:10259800F55005D0F6CFE1FFF7CFE2FFE75000098D
:1025A800D8A4D9EF12F0DBEF12F0ADEF12F0120061
:1025B800020E2DEC14F00001826F010E2DEC14F0C8
:1025C8000001836F000E2DEC14F00001846F823936
:1025D8000F0B030B300FA36F82510F0B300FA46F3B
:1025E8003A0EA56F83390F0B0F0B300FA66F83516F
:1025F8000F0B300FA76F3A0EA86F84390F0B0F0B14
:10260800300FA96F84510F0B300FAA6F000EAB6FFC
:10261800120023EF13F002C0F6FF03C0F7FFF86AB9
:10262800050EF76403D00800F55005D0F6CFE1FF9A
:10263800F7CFE2FFE750A9EC14F0024A032A02C0E0
:10264800F6FF03C0F7FFF86A050EF76403D0080029
:10265800F55005D0F6CFE1FFF7CFE2FFE7500009CC
:10266800D8A439EF13F03BEF13F00FEF13F012007B
:102678000600F2A442EF13F044EF13F066EF13F0F4
:10268800080ED624D66E000ED720D76E0001854BD3
:10269800862B210E851907E14E0E8619D8A457EF0F
:1026A80013F059EF13F066EF13F0000E866F000E6B
:1026B800856F5D50D8B463EF13F065EF13F066EFE4
:1026C80013F05D06F2945E9211002020566965773A
:1026D800204C6F67202020202000002020446F77A6
:1026E8006E6C6F6164204C6F672000002020436C83
:1026F800656172204C6F6720202020000020205345
:1027080065742054696D6520202020200000202059
:0F2718004368616E67652050737764202000006E
:10272800076E07C003F0D8900336D8900336C2501E
:10273800C30B0310C26EC282C2B2A5EF13F0A7EF9B
:1027480013F0A0EF13F0C350C4CF03F0046A03C022
:1027580004F0036A0310056E0450066E05C001F00C
:1027680006C002F01200000E2DEC14F0046E0450A6
:102778008009026E000E9AEC14F0020E2DEC14F093
:10278800046E04C002F0020E9AEC14F0930E026E6E
:10279800070E9AEC14F0000E2DEC14F0046E0450A1
:1027A8007F0B026E000E9AEC14F01200076EF8EC24
:1027B80014F0A00EE8EC14F00750E8EC14F0045004
:1027C800E8EC14F0F4EC14F00B0E066EB80E056E7F
:1027D8000506D8A00606052806E10628D8A4F7EFBE
:1027E80013F0F9EF13F0ECEF13F01200026E01B0E2
:1027F80000EF14F003EF14F0828204EF14F08292D9
:1028080002C083FF82848294958E82808292828421
:10281800829483BE12EF14F014EF14F00BEF14F04F
:102828008290959E120031313131004F4E0047524F
:1028380000474E0047310047320047330047340015
:102848004735005F4300444C00434C005354004359
:102858005000026EF8EC14F0D00EE8EC14F00250C0
:10286800E8EC14F0FCEC14F0D10EE8EC14F0EEEC0B
:1028780014F0036EF4EC14F003501200026EF8EC3E
:1028880014F0A00EE8EC14F00250E8EC14F0FCECA4
:1028980014F0A10EE8EC14F0EEEC14F0036EF4EC76
:1028A80014F00350120001500302F3CF05F0F4CFE7
:1028B80006F001500402F350062602500302F350BA
:1028C800062605C001F006C002F01200F28ED6EC12
:1028D80014F052EC11F08AEC14F0C1EC14F0B7ECDF
:1028E80013F0CCEC14F07AEC14F01200948E949C53
:1028F800AC9CAC8AAC98AC96AC84AB8EAB9CAB88E9
:10290800B896810EAF6E9E989E9A1200C08EC08AAD
:10291800C098C096C090C082C094C292C19AC19813
:10292800000EC46E000EC36EC2801200036EF8EC77
:1029380014F0D00EE8EC14F00350E8EC14F0025058
:10294800E8EC14F0F4EC14F01200016E9EA8AFEF5E
:1029580014F0B1EF14F0AAEF14F09E9801C0ADFF87
:1029680012000A6E000E016E0950FAEC13F0010E07
:10297800016E0A50FAEC13F0120094869488280E1F
:10298800C66E310EC86EC79CC78E9E96A196120061
:10299800D58CD59AD586000ED76E060ED66EF294D3
:1029A800F28A12000F0EC16E1E0E936EF19E8150B8
:1029B800E009816E12009EA6E4EF14F0E6EF14F031
:1029C800DFEF14F09E961200016E01C0C9FFDFEC24
:1029D80014F0120000EC15F004EC15F0C9501200C8
:1029E800C584DFEC14F01200C580DFEC14F012008F
:1029F800C582DFEC14F01200C586DFEC14F012007B
:0A2A0800C58AC58812000101037899
:102E5200000A0A0D232054696D6520202020204598
:102E6200562053500A0D00232054494D452020205E
:102E72002020455620535000202020206368616E98
:102E82006765642020202020002020202054696DC6
:102E920065206E6F74202020200057524F4E47202D
:102EA20050415353574F5244202000454E544552EF
:102EB2002050415353574F52442020003120417437
:102EC20074656D7074206C656674202000594F55CE
:102ED2002041524520424C4F434B45442000322072
:102EE200417474656D707473206C65667420004360
:102EF2004F52524543542050415353574F5244006E
:102F020020205375636365737366756C6C7920203A
:102F120000204C6F6720446F776E6C6F616465644C
:102F22002000202054494D452020202045562020B5
:102F32005350002020204C4F4720434C45415245DE
:102F42004420200020205355434345535346554CBB
:102F52004C5920200020202020202020202020202A
:102F62002020202020005F20202020202020202040
:102F720020202020202000535543434553534655DB
:102F82004C2020202020200052452D454E544552F1
:102F920020504153535744200050415353574F52EE
:102FA2004420555044415445200050535744204E2C
:102FB2004F54204D41544348454400454E544552D8
:102FC200204E4557205041535357440054696D6574
:102FD200206368616E67656400737563636573730C
:102FE20066756C6C790048483A4D4D3A5353005718
:0E2FF2006169742E2E2E20002073656300008E
:020000040020DA
:08000000FFFFFFFFFFFFFFFF00
:020000040030CA
:0E000000FF071F1FFF8285FF0FC00FE00F409C
:00000001FF
